S01600004D795F3173745F70726F6A6563742E737265637B
S11300000C942A000C947F020C943C000C943C0049
S11300100C943C000C943C000C943C000C943C006C
S11300200C943C000C943C000C943C000C943C005C
S11300300C943C000C943C000C943C000C943C004C
S11300400C943C000C943C000C943C000C943C003C
S11300500C943C0011241FBECFE5D8E0DEBFCDBF19
S113006020E0A0E6B0E001C01D92A336B207E1F79C
S11300700E9499000C946E030C940000109261008D
S113008080916100811111C040E061E00E94410152
S113009041E060E080E00E94410164E184E00E946C
S11300A01A0381E080936100EBCF8130B1F440E02A
S11300B060E080E00E944101C0E009C061E080E0AE
S11300C00E94EF0160E282E00E941A03CF5FCA300F
S11300D0A8F382E080936100D3CF823091F440E0B2
S11300E061E080E00E94410141E062E080E00E9422
S11300F0410164E184E00E941A0383E0809361007B
S1130100BFCF833009F0BCCF40E062E080E00E94C2
S11301104101C0E009C061E080E00E94EF0160E2BB
S113012082E00E941A03CF5FCA30A8F310926100E4
S1130130A7CF80E00E94F9026CE070E080E090E0DC
S11301400E94180340E062E083E00E94D10041E095
S113015060E080E00E94D10041E061E080E00E9424
S1130160D10041E062E080E00E94D10041E060E023
S113017081E00E94D10041E061E081E00E94D10071
S113018041E062E081E00E94D1000E94230262E02B
S113019080E00E94270280E00E9473020E943E00D9
S11301A0FDCF4130A1F5813089F028F08230C9F0CB
S11301B0833011F108952AB381E090E002C0880FE2
S11301C0991F6A95E2F7822B8ABB089527B381E0D1
S11301D090E002C0880F991F6A95E2F7822B87BBD3
S11301E0089524B381E090E002C0880F991F6A95B6
S11301F0E2F7822B84BB089521B381E090E002C032
S1130200880F991F6A95E2F7822B81BB08954111EB
S113021037C0813091F028F08230D9F0833029F151
S113022008952AB381E090E002C0880F991F6A956F
S1130230E2F7809582238ABB089527B381E090E09A
S113024002C0880F991F6A95E2F78095822387BBC5
S1130250089524B381E090E002C0880F991F6A9545
S1130260E2F78095822384BB089521B381E090E076
S113027002C0880F991F6A95E2F78095822381BB9B
S113028008954130A1F5813089F028F08230C9F019
S1130290833011F108952BB381E090E002C0880F00
S11302A0991F6A95E2F7822B8BBB089528B381E0EE
S11302B090E002C0880F991F6A95E2F7822B88BBF1
S11302C0089525B381E090E002C0880F991F6A95D4
S11302D0E2F7822B85BB089522B381E090E002C04F
S11302E0880F991F6A95E2F7822B82BB089541110A
S11302F037C0813091F028F08230D9F0833029F171
S113030008952BB381E090E002C0880F991F6A958D
S1130310E2F7809582238BBB089528B381E090E0B7
S113032002C0880F991F6A95E2F78095822388BBE3
S1130330089525B381E090E002C0880F991F6A9563
S1130340E2F78095822385BB089522B381E090E093
S113035002C0880F991F6A95E2F78095822382BBB9
S11303600895813079F028F08230A9F08330E1F0EB
S113037024C089B390E002C0959587956A95E2F709
S11303808170089586B390E002C0959587956A952B
S1130390E2F78170089583B390E002C09595879544
S11303A06A95E2F78170089580B390E002C0959554
S11303B087956A95E2F78170089580E00895813009
S11303C041F028F0823039F0833039F008956BBB66
S11303D0089568BB089565BB089562BB0895813094
S11303E089F028F08230C9F0833011F108952BB3DD
S11303F081E090E002C0880F991F6A95E2F7822796
S11304008BBB089528B381E090E002C0880F991F48
S11304106A95E2F7822788BB089525B381E090E0CE
S113042002C0880F991F6A95E2F7822785BB089559
S113043022B381E090E002C0880F991F6A95E2F729
S1130440822782BB08958FB780688FBF089581117A
S113045024C0613069F028F0623089F06330B1F073
S1130460089585B78E7F85BF85B78D7F85BF089535
S113047085B7816085BF85B78D7F85BF089585B7B2
S11304808E7F85BF85B7826085BF089585B78160FB
S113049085BF85B7826085BF0895813019F56130C5
S11304A069F028F0623089F06330B1F0089585B7BF
S11304B08B7F85BF85B7877F85BF089585B78460A7
S11304C085BF85B7877F85BF089585B78B7F85BF37
S11304D085B7886085BF089585B7846085BF85B773
S11304E0886085BF0895882319F0813021F008952C
S11304F08BB780648BBF8BB780688BBF08951F92C6
S11305000F920FB60F9211242F933F934F935F9343
S11305106F937F938F939F93AF93BF93CF93EF93F7
S1130520FF936CE382E00E941A0362E083E00E947E
S1130530B101811105C0809160008F5F80936000DC
S113054080916000811141C08091610081110FC0D0
S113055041E062E081E00E94410164E184E00E94A4
S11305601A0340E062E081E00E9441012EC0815004
S11305708330A0F02AC041E060E081E00E944101A4
S113058061E080E00E94EF0161E081E00E94EF0100
S113059060E282E00E941A03CF5F01C0C0E0CA306B
S11305A050F361E080E00E94DF0164E081E00E949A
S11305B0DF0164E184E00E941A0360E080E00E94AD
S11305C0DF0160E081E00E94DF0110926000FF9192
S11305D0EF91CF91BF91AF919F918F917F916F9147
S11305E05F914F913F912F910F900FBE0F901F90ED
S11305F01895813041F028F0823061F0833089F021
S1130600089513BE089583B7886083BF83B78F7B33
S113061083BF089583B7877F83BF83B7806483BF15
S1130620089583B7886083BF83B7806483BF0895C8
S113063062BF0895109262008230F9F028F4882392
S113064041F0813081F042C0833009F1843049F1B6
S11306503DC083B7816083BF83B78D7F83BF83B77A
S11306608B7F83BF33C083B78E7F83BF83B78260A2
S113067083BF83B78B7F83BF29C083B7816083BF68
S113068083B7826083BF83B78B7F83BF1FC083B769
S1130690816083BF83B78D7F83BF83B78B7F83BF25
S11306A015C083B7816083BF83B78D7F83BF83B752
S11306B0846083BF0BC008B600FEFDCF88B781609D
S11306C088BF809162008F5F809362008091620096
S11306D0861788F313BE109262000895F894FFCF32
S9030000FC
